:020000040800F2
:10000000582B0020ED0100084D1D0008591B000869
:10001000E51C00080915000803390008000000006D
:10002000000000000000000000000000A124000803
:100030007B17000800000000D120000801270008FD
:10004000070200080702000807020008070200086C
:10005000070200080702000807020008070200085C
:100060000702000807020008BB1700080702000883
:1000700007020008070200080D1500080702000823
:10008000070200083D1500080702000807020008E3
:10009000070200080702000807020008070200081C
:1000A0000702000865270008070200080702000889
:1000B0006927000807020008070200080702000875
:1000C00007020008070200080702000807020008EC
:1000D000070200082D3400087D3500086536000849
:1000E00007020008070200080702000807020008CC
:1000F00007020008070200080702000807020008BC
:1001000007020008070200080702000807020008AB
:10011000C53100089D3200080702000807020008E8
:10012000070200080702000807020008070200088B
:1001300000F002F800F04AF80AA090E8000C8244AF
:100140008344AAF10107DA4501D100F03FF8AFF28C
:10015000090EBAE80F0013F0010F18BFFB1A43F0A5
:1001600001031847F89E0000189F0000103A24BFB2
:1001700078C878C1FAD8520724BF30C830C144BF0C
:1001800004680C607047000000230024002500264E
:10019000103A28BF78C1FBD8520728BF30C148BFEA
:1001A0000B607047662909F01A85642900F04C80BD
:1001B000002070471FB500F0E7FB0400002000217D
:1001C00008F0F8FAE0601FBD10B510BD00F0F8FCB3
:1001D0001146FFF7EFFF05F0FDFC00F016FD03B43C
:1001E000FFF7F2FF03BC03F0DEFE00000948804782
:1001F00009480047FEE7FEE7FEE7FEE7FEE7FEE709
:10020000FEE7FEE7FEE7FEE704480549054A064B20
:10021000704700000527000831010008582500201C
:10022000582B002058270020582700207047000036
:100230000FB4044910B503AA029800F08FFB10BC5C
:100240005DF814FB440000202DE9F041064600242F
:1002500010687529314616A510D0AFF3008000282C
:1002600002DA404213A507E031688A0701D512A5DA
:1002700002E0490704D511A5012401E0AFF3008095
:1002800000210A2206F1240709E0B0FBF2FCB0FBD2
:10029000F2F302FB1C00303078541846491C002849
:1002A000F3D123462A463046BDE8F04100F0EEB8CF
:1002B000000000002D0000002B00000020000000C6
:1002C0002DE9F0474FF0000A89460446C0F820A007
:1002D0002046E1688847002876D0252806D0D4E952
:1002E00001219047206A401C2062F1E7E168204626
:1002F00000268847C4F81CA005460027C4F818A0AB
:100300002A2D09D0284603F047FE38B304EB8708AE
:10031000303DC8F8185019E059F8041B204604EB8A
:1003200087029161E1688847012F054618D1E0698D
:10033000002820DA26F020061DE0D8F8180000EB8F
:10034000800005EB40003038C8F818002046E1680E
:100350008847054603F020FE0028EED1012F0AD081
:100360002E2D08D12046E16888477F1C0546022FC4
:1003700046F02006C4DBA069002803DA404246F0BC
:100380000106A061F00701D026F010066C2D0AD0FE
:10039000682D08D04C2D39D06A2D35D0742D35D02C
:1003A0007A2D33D016E0E1682F4620468847B842C0
:1003B00005460AD16C2F27D04FF48060E1680643D0
:1003C00020468847054605E027E06C2F1AD04FF4F9
:1003D000807006430DB3A5F14100192802D82035DD
:1003E00046F400664A462946204626604E46FFF7F8
:1003F000D9FE80B101280BD0F61D26F0070000F1D0
:10040000080965E74020E4E78020D7E70020D5E72A
:1004100006F104095CE7284661E7206ABDE8F08739
:100420004FF0000200B5134694469646203922BF8D
:10043000A0E80C50A0E80C50B1F12001BFF4F7AFD8
:10044000090728BFA0E80C5048BF0CC05DF804EBBA
:10045000890028BF40F8042B08BF704748BF20F828
:10046000022B11F0804F18BF00F8012B7047704726
:1004700070477047704710B500F08AFA006810BDE9
:1004800010B5044600F084FA046010BD2DE9F04771
:100490000D4699469246044600F1240801688806F4
:1004A00004D5E06921F01001216000E00120A8429C
:1004B00001DD471B00E00027A1697A1902EB090062
:1004C000081AA0612078C00602D42046AFF300804D
:1004D000002608E0D4E901211AF806009047206AB6
:1004E000401C761C20624E45F4DB2078C0060AD5FD
:1004F0002046AFF3008006E0D4E901213020904788
:10050000206A401C2062381EA7F10107F4DC07E0D6
:10051000D4E9012118F805009047206A401C2062A8
:10052000281EA5F10105F3DC2046AFF300802078FA
:10053000000602D50220BDE8F0870120FBE77047E6
:100540002DE9FF4F0C461E464FF0FF378BB0D2E926
:100550000001DDF860800A908A46C1F30A5505B9AA
:100560003D46002108464FF00000BAF1000F00F4AC
:10057000400005DA00EB80004FF4400101EA500032
:100580004FEA9059B9F1010F00DDB9460A9850EAD7
:100590004A000ED044F61050A5F2FF3545432F1403
:1005A000B8F1000F1ED07542291E1EDDC9F10002F0
:1005B0001CE0B8F1010F4FF0000001D0302103E042
:1005C000F24305E02154401CB042FBDB30460022E0
:1005D000002121540B99C1F80880C1E900200FB017
:1005E000BDE8F08FBD1B6D1CDEE74A4600DA6942AC
:1005F00006A800F06FFA06AB93E8070003AB83E8A8
:10060000070050460A9900F049FB8DE80700A0F565
:1006100000501F3800900398002D0ADD42F21F01A0
:100620004A460844002303A90390684600F0B2FD3F
:1006300009E0A0F500504A461F38002303A90390A3
:10064000684600F0BCFD8DE807000004000C03D0F4
:100650004FF0FF30410800E01046B8F1000F03D022
:100660000022009215461EE0751E05D400F094F994
:10067000303262556D1EF9D5B3460122084302D0CF
:1006800000227F1C04E02078302801D100227F1E48
:10069000002A099784D01DE0112D07DA00F07CF9BB
:1006A000303262556D1C50EA0102F5D1084302D088
:1006B0000098C8B10EE00021681E05E0235C625C72
:1006C00063542254401E491C8142F7DBAB46A81BF1
:1006D000401E0990002004F80B000B98099AC0F8FE
:1006E0000880C0E9002B7AE711264FF0000857E791
:1006F0002DE9F04F88460446D21D22F0070191B043
:10070000D1E90001CDE90A0103F0FDF802460B989A
:10071000C00F01D02D2007E02068810701D52B20D4
:1007200002E0202101EAC000032A099001D0072A33
:1007300005DB03464146204600F08CF90BE12078AA
:10074000800601D5E06900E00620B8F1650F81461A
:1007500006D0B8F1660F18D0B8F1670F70D131E04C
:100760000020B9F1110F009001DB112301E009F124
:1007700001030AAA01A90CA8FFF7E2FEDDE90C704B
:10078000002609F10105834647E001204B46009011
:100790004FF000470AAA01A90CA8FFF7D1FEDDE936
:1007A0000DB00C995D46002610B909F101000D1835
:1007B000B9EB050003D4C0F1FF3609F10105A5EB43
:1007C00009002BE0B9F1010F01DA4FF00109002017
:1007D000B9F1110F0090484601DD112300E00346F6
:1007E0000AAA01A90CA8FFF7ABFEDDE90C704D4683
:1007F00000268346207800070AD4AB4500DA5D4620
:1008000001A8012D04DD411911F8011C302907D080
:100810004F4502DA17F1040F04DA012082460FE097
:100820006D1EEEE7002F02DCED1B3E4403E0781C5A
:10083000A84200DD7D1CB81B00F1010A4FF0004703
:100840002078000703D4AA4501DB4FF0FF3A0021CE
:10085000B7F1004F0DF143088DF8431024D002206A
:100860002B23002F01DA7F422D230A21021EA0F143
:10087000010000DC5FB197FBF1FC97FBF1F201FB9B
:100880001C7C17460CF1300C08F801CDEEE7A8F1FE
:10089000010003702188090501D5452100E065218B
:1008A000A0F1010800F8011C09980FA9A1EB0807A5
:1008B000FF1D00B10120411901EBEA70A169384424
:1008C000081A401EA0612078C00602D42046AFF36B
:1008D0000080099828B1D4E901219047206A401C82
:1008E00020622078C00622D52046AFF300801EE0AB
:1008F000002E04DBB34502DD01A8805D00E030205E
:10090000D4E901219047206A401C2062761CAAF19C
:1009100001005FEA000A0AD100F036F8C0680168F9
:10092000405CD4E901219047206A401C2062281EC7
:10093000A5F10105DCDC07E0D4E9012118F8010B81
:100940009047206A401C2062381EA7F10107F3DCA3
:100950002046AFF30080032011B041E6074B70B58D
:100960000D467B4400F063F80446284600F024F965
:1009700010B14FF0FF3070BD204670BDB33E000097
:1009800000487047F82400200048704718250020D0
:1009900000487047F824002030B5B0F10A024FEA51
:1009A000900E71F100034EEA817EB0EB0E0061EB18
:1009B00091014FEA101E4EEA017E10EB0E0041EB52
:1009C00011114FEA102E4EEA016E10EB0E0041EBB2
:1009D00011214FEA104E4EEA014E10EB0E0041EB92
:1009E0001141401841F100014FEAD00040EA417046
:1009F0004FEAD10110EB80054FEA810444EA90747C
:100A000044EB01046D1944EB0404521BA3414FF065
:100A1000000348BF0A3200D530BD401C41F100013F
:100A200030BD000001694A1C02610878704700B5BA
:100A30008FB0CDE901310021059105497944CDE917
:100A4000031011466846FFF73BFC0FB000BD0000E5
:100A5000E5FFFFFF2DE9F0411F460446032601682C
:100A6000072A01F4006004DB08B116A505E016A50D
:100A700003E008B115A500E015A521F010002060E5
:100A8000A069C01EA0610FB1401EA0612046AFF357
:100A900000804FB1D4E9012138469047206A401CBC
:100AA0002062C01C206206E0206AFAE7D4E9012136
:100AB00015F8010B9047761EF8D22046AFF3008060
:100AC000BDE8F0814E414E006E616E00494E460019
:100AD000696E66002DE9F047814616468AB03548B2
:100AE00078440DC88DE80D0032487844801C03AC72
:100AF0000DC884E80D0041F69B300844372190FB77
:100B0000F1F290FBF1F5A5F1800501FB12041B3C0D
:100B100002D56442012000E00020DFF898A0804662
:100B20000027FA44AAF1BE0A0EE0E0070AD03246D6
:100B3000684607EB470101230AEB810100F03FFB08
:100B40008DE8070064107F1C002CEED1194F7F4404
:100B5000AE3F19E0E80715D007EB04100DF1180AB5
:100B600090E80E008AE80E00C068F04201D19819A2
:100B700008903246012306A903A800F020FB03AB2E
:100B800083E807006D10641C002DE3D14FF00103D2
:100B900032466946B8F1000F03A802D000F0FAFA15
:100BA00001E000F00CFBC9E90001C9F808200AB017
:100BB000BDE8F08730940000007B00F080007047B3
:100BC0007546FFF7DDFEAE4605006946534620F048
:100BD0000700854618B020B5FFF716FBBDE820409A
:100BE0004FF000064FF000074FF000084FF0000BE9
:100BF00021F00701AC46ACE8C009ACE8C009ACE89C
:100C0000C009ACE8C0098D46704710B50446AFF383
:100C100000802046BDE81040FFF7E1BA4FF0013CEC
:100C200050F8042B51F8043B9A4221D1A2EB0C035B
:100C3000934313EACC1317D150F8042B51F8043B1B
:100C40009A4215D1A2EB0C03934313EACC130BD1B8
:100C500050F8042B51F8043B9A4209D1A2EB0C0343
:100C6000934313EACC13DBD04FF00000704700BF72
:100C7000D01A01BAB1FA81F101F0180122FA01F09B
:100C8000CB40C1F12001DBB2C0B2C01A2CFA01F393
:100C9000D11A914311EAC311E6D170475FEA400CC3
:100CA00008BF91F0000F4FEA8C234FEAC12243EABC
:100CB00051514FEA1C5018BF00F5F0404FEA300088
:100CC00018BF41F000415FEA6C5C00F02980BCF184
:100CD000FF3F08BF40F080407047130C06BF12046E
:100CE0004FF0100C4FF0000C130E04BF12020CF169
:100CF000080C130F04BF12010CF1040C930F04BF76
:100D000092000CF1020CD30F04BF52000CF1010C45
:100D100011464FF00002A0F11F00A0EB0C0070473D
:100D200011F0004F08BF704731F000413FF4D5AFDC
:100D30000B0C06BF09044FF0100C4FF0000C0B0E0B
:100D400004BF09020CF1080C0B0F04BF09010CF1E0
:100D5000040C8B0F04BF89000CF1020CCB0F04BFF5
:100D600049000CF1010CCCF12003A0EB0C0022FA9D
:100D700003F302FA0CF241EA030100F101007047AB
:100D800020F07F4C80EA030023F07F47ACEB0703A1
:100D900003F57C5300F0004003F1FF032DE9804987
:100DA0004FEA154B09B44FEA144325EA0B4E24EAE7
:100DB00003480FF2042606EB132749083E785FEA42
:100DC000320203FB0667C7F5000707FB06F64FEA8A
:100DD00054374FEAD64606F1020607FB066CCCF103
:100DE000005C4FEA1C472CEA074C07FB06F40CFB9F
:100DF00006F504EB15464FEA961634BF00204FF077
:100E000000404FEAD13706FB07FC4FEA1C4C0CFBB5
:100E10000BF7D21B03FB0CF761EB07010CFB0EF782
:100E2000B0EB074072EB17420CFB08F734BFA2EBA4
:100E30000742B2EB074261EB17414FEA0C444FEA1D
:100E4000910706FB07FC4FEA1C4C0CFB0BF7B0EBC1
:100E5000C74072EB573203FB0CF734BFA2EBC7421B
:100E6000B2EBC74261EB57310CFB0EF7B0EBC7009A
:100E700072EB57720CFB08F734BFA2EBC702B2EB60
:100E8000C70261EB5771039F4FEA816141EA9211FA
:100E900004EBCC044FEAD1374FEA826206FB07FC31
:100EA00042EA90124FEA80604FEA1C4C0CFB0BF7B1
:100EB000D21B03FB0CF761EB07010CFB0EF7B0EB49
:100EC000074072EB17420CFB08F734BFA2EB074256
:100ED000B2EB074261EB17414FEA8C554FEA91079D
:100EE00004EB9C2406FB07FC4FEA1C4C0CFB0BF7A5
:100EF000B0EBC74072EB573203FB0CF734BFA2EBE9
:100F0000C742B2EBC74261EB57310CFB0EF7B0EBB7
:100F1000C70072EB57720CFB08F734BFA2EBC70295
:100F2000B2EBC70261EB577115EB4C254FEA8161BB
:100F300041EA92114FEA82624FEAD13742EA9012B7
:100F400006FB07FC44F100044FEA80604FEA1C4CAA
:100F50000CFB0BF7D21B03FB0CF761EB07010CFB3F
:100F60000EF7B0EB074072EB17420CFB08F734BFEB
:100F7000A2EB0742B2EB074261EB174115EB1C15E0
:100F80004FEA813141EA92414FEA823242EA90428D
:100F90004FEA80304FEA0C7644F1000448EA0343FC
:100FA0004EEA0B484FF0000EB2EB080C71EB030752
:100FB00024BF624639464EEB0E0E4FF0000B001870
:100FC000524149414BEB0B0BB2EB080C71EB0307A1
:100FD0007BF1000B24BF624639464EEB0E0E4FF0FC
:100FE000000B0018524149414BEB0B0BB2EB080CC4
:100FF00071EB03077BF1000B24BF624639464EEBD1
:101000000E0E51EA020718BF46F0010616EB0E76E7
:1010100055F1000254F1000103D5BDE88901BDE896
:101020000088BDE88901BDE80048B619524141EB8E
:101030000101A3F10103704780807F7E7D7C7B7A74
:101040007978777676757473727171706F6E6E6D74
:101050006C6C6B6A6A69686867666665646463631A
:1010600062616160605F5F5E5E5D5D5C5C5B5B5AA0
:101070005A5959585857575656555555545453530D
:1010800052525251515050504F4F4F4E4E4D4D4D68
:101090004C4C4C4B4B4B4A4A4A49494948484847B3
:1010A00047474746464645454544444444434343F1
:1010B0004342424242414141002B9C4630D477009A
:1010C0002BD01CB54FEA370703B44FF010004FF098
:1010D0001001BAF1000F06D0BCF1000FDCBF40F0E8
:1010E000080040F008014FF000000FBCBDE81040C0
:1010F0000BF1010BBBF1010F08BF5FEA170722BF1D
:1011000012F1010211F101014FF0004143F100031E
:1011100000F0004043EA00007047F9D35708D0E7D9
:1011200046EA064613F1400F4FEA16461FDD13F15B
:10113000200FDFBF16430A46002120335B42BED09A
:10114000C3F1200746EA064602FA07F74FEA1646B9
:1011500046EA0706C3F1200722FA03F201FA07F76D
:1011600021FA03F14FF0000342EA0702A7E746EA3B
:10117000020646EA06464FEA164646EA0106BCBFA4
:1011800046EA0646360C4FF000034FF000024FF0DF
:10119000000194E72DE9804C9A46934670B491E89B
:1011A000380007C831EA400C48BF34EA430C03D585
:1011B000FFF7E6FDFFF780FFF0BCBDE8008C2DE9EE
:1011C000804C9A46934670B491E8380007C810F0F6
:1011D000804F08BF13F0804F03D100F005F8FFF7F0
:1011E0006BFFF0BCBDE8008C20F07F4780EA030075
:1011F00023F07F4C07EB0C03A3F57C5300F0004079
:10120000A3F1FE0392F0000F00F0B38095F0000F01
:1012100000F077802DE901494FEA11404FEA14466A
:1012200021EA004800FB06FC24EA064708FB06F614
:1012300007FB08F800FB07F718EB06484CEB164CC9
:101240004FEA124B18EB07484FEA15464CEB174094
:1012500022EA0B4E0BFB06FC25EA06470EFB06F6C0
:1012600007FB0EFE0BFB07F71EEB064E4CEB164C76
:101270004FF000061EEB074E4CEB174B18EB0B081C
:1012800040F1000018EB0E0B58EB000840F1000095
:101290008F1A4FF000013CBFC943661B14BFB5EB6A
:1012A000040C00213CBFC943F61B4FEA17444EEA29
:1012B0008E0E27EA04454FEA1C4704FB07622CEA1E
:1012C000074C05FB07F70CFB05F604FB0CFC16EBC3
:1012D000074642EB174216EB0C4642EB1C421BEB57
:1012E000060658EB0202414146EA9E0601D5BDE8DA
:1012F0000189B619524141EB0101A3F10103BDE897
:1013000001894FEA14454FEA114724EA054621EACC
:10131000074C05FB07F406FB07F70CFB06F105FB82
:101320000CFC11EB074144EB17444FEA124711EB59
:101330000C4144EB1C4422EA074C05FB07F206FB78
:1013400007F70CFB06F605FB0CFC16EB074642EB19
:10135000174216EB0C4642EB1C456A1854F100018B
:1013600048BF7047B619524141EB0101A3F1010397
:10137000704795F0000F37D04FEA11424FEA1447FB
:1013800021EA024624EA074C02FB07F106FB07F7B5
:101390000CFB06F402FB0CFC14EB074441EB174179
:1013A0004FEA154714EB0C4441EB1C4125EA074C6E
:1013B00002FB07F506FB07F70CFB06F602FB0CFC2D
:1013C00016EB074645EB174516EB0C4645EB1C4262
:1013D000121951F1000148BF7047B619524141EB53
:1013E0000101A3F1010370474FEA14454FEA114789
:1013F00024EA054621EA074C05FB07F106FB07F73F
:101400000CFB06F24FF0000605FB0CFC12EB07424A
:1014100041EB174112EB0C4251EB1C4148BF7047A6
:10142000921841EB0101A3F10103704703480088C2
:1014300040F001000149088070470000346C004012
:1014400010B501214FF0C05000F060FE012000F007
:1014500039FEFFF7EBFF012000F022F8012000F039
:1014600005F8002000F016F810BD000001490860E2
:101470007047000088860D4208B5014600200090A4
:10148000034800900098084400900098008808BD28
:10149000006C0040014908607047000000860D4262
:1014A000014908607047000004860D4208B500221B
:1014B0000092044A0092009A02440092009A11603D
:1014C00008BD0000006C004010B501F01BF900F0F1
:1014D0005DFE00F089FC01F0C9F800F0CBFD01F0E1
:1014E0002BFF012001F052F800F0A4F9FFF7A8FF4C
:1014F00000F034FB0420FFF7BFFF0446641CA1B2D8
:101500000420FFF7D3FF10BD00BFFEE710B54FF476
:10151000005000F0F5F840B100228021054802F0AB
:101520001AF90021044800F039F84FF4704000F037
:1015300027F810BD003801404400024010B54FF0BC
:10154000007000F0DDF878B100228021094802F037
:1015500002F90021084800F021F8052000F01CF9EC
:101560000121064800F0EFFA4FF0706000F008F833
:1015700010BD0000004400408000024000200140F7
:1015800000F0805111B10349086001E00249486050
:1015900070470000040402400000024021B10268CC
:1015A00042F00102026004E002684FF6FE731A4046
:1015B0000260704701684FF6FE7211400160002121
:1015C000016041608160C1604B49884208D14A494D
:1015D0000839496841F00F01474A083A51608AE0EA
:1015E00045491431884208D143490839496841F0D6
:1015F000F001414A083A51607DE03F492831884274
:1016000008D13D490839496841F470613A4A083ABD
:10161000516070E038493C31884208D13649083978
:10162000496841F47041344A083A516063E03249F4
:101630005031884208D130490839496841F4702155
:101640002D4A083A516056E02B496431884208D14E
:1016500029490839496841F47001274A083A51601C
:1016600049E025497831884208D123490839496839
:1016700041F07061204A083A51603CE01F498842BD
:1016800006D1011F096841F00F01021F116032E00D
:101690001A491431884208D11849091F096841F0D4
:1016A000F001164A121F116025E0144928318842C2
:1016B00008D11249091F096841F470610F4A121FCD
:1016C000116018E00D493C31884208D10B49091FCF
:1016D000096841F47041094A121F11600BE0074983
:1016E0005031884207D10549091F096841F470212A
:1016F000024A121F116070470800024008040240AD
:1017000001460020002201F0805313B1054B1A68F6
:1017100001E0054B1A6802EA01030BB1012000E069
:101720000020704700040240000002401AB1036824
:101730000B43036002E003688B430360704710B5FE
:101740000022026847F6F0739A430C6A8B682343C1
:101750000C6923434C6923438C692343CC6923439D
:101760004C6A23438C6A23431A430260CB6843606C
:101770000B6883604B68C36010BD7047014608E08A
:1017800042F6DE6201E0531E9AB2002AFBDC4B1ED9
:1017900099B20029F4DC70474FF4FA5200FB02F1D1
:1017A00000BF0A1EA1F10101FBD17047C10000BFBB
:1017B0000A1EA1F10101FBD1704710B5102000F005
:1017C0000BF810B1102000F001F810BD01490860BD
:1017D0007047000014040140014600200022074B1E
:1017E0001B6803EA0102054B14331B680B4013B15D
:1017F0000AB1012000E00020704700000004014011
:101800000549096821F01001034A11601146096871
:101810000143116070470000002002400146002093
:10182000034A106800F03800084310607047000059
:101830000020024008B5012140F2FD1000F086FCB6
:101840000220ADF8000003208DF8020010208DF872
:1018500003006946474800F099F81C20ADF80000E5
:1018600048208DF803006946434800F08FF87C203B
:10187000ADF8000048208DF8030069463F4800F0AD
:1018800085F87F20ADF8000048208DF803006946F8
:101890003B4800F07BF84FF4F070ADF800000320F7
:1018A0008DF8020010208DF803006946324800F0E0
:1018B0006DF84FF4F071304800F047F94FF4406094
:1018C000ADF8000003208DF8020010208DF8030011
:1018D00069462C4800F05AF84FF47070ADF80000DB
:1018E00003208DF8020010208DF803006946264879
:1018F00000F04CF84FF47040ADF8000003208DF874
:10190000020010208DF8030069461E4800F03EF8E2
:101910004FF4F050ADF8000003208DF802001020C5
:101920008DF803006946144800F030F80320ADF844
:1019300000008DF8020010208DF8030069460F4862
:1019400000F024F84FF4C040ADF8000003208DF8FB
:10195000020010208DF803006946074800F016F8D1
:101960000321064800F0F1F84FF4C041024800F0AE
:10197000ECF808BD000801400020014000180140BB
:10198000001C014000140140001001402DE9F0410D
:10199000024600250026002000230024002791F89D
:1019A00003C00CF00F0591F803C00CF0100CBCF153
:1019B000000F03D091F802C04CEA050591F800C071
:1019C000BCF1000F31D0146800202BE04FF0010C67
:1019D0000CFA00F3B1F800C00CEA03069E4220D1D5
:1019E00083004FF00F0C0CFA03F7BC4305FA03FC1D
:1019F0004CEA040491F803C0BCF1280F06D14FF063
:101A0000010C0CFA00FCC2F814C00AE091F803C003
:101A1000BCF1480F05D14FF0010C0CFA00FCC2F8E4
:101A200010C0401C0828D1D31460B1F800C0BCF12C
:101A3000FF0F34DD546800202EE000F1080C4FF059
:101A4000010808FA0CF3B1F800C00CEA03069E4244
:101A500021D183004FF00F0C0CFA03F7BC4305FAB9
:101A600003FC4CEA040491F803C0BCF1280F05D133
:101A700000F1080C08FA0CF8C2F8148091F803C0C1
:101A8000BCF1480F07D100F1080C4FF0010808FA2B
:101A90000CF8C2F81080401C0828CED35460BDE872
:101AA000F0810000F0B50A46002300240021002543
:101AB00000F00046B6F1004F02D11D4EF16901E081
:101AC0001B4E7168C0F3034583B200F44016B6F5AF
:101AD000401F08D121F07061154E766826F07066BF
:101AE000134F7E6012E000F48016B6F5801F06D119
:101AF000032606FA05F4A14341F0706106E0460DA5
:101B0000360103FA06F6B14341F0706122B1460D89
:101B1000360103FA06F6314300F00046B6F1004FF5
:101B200002D1034EF16101E0014E7160F0BD000091
:101B3000000001400246002093680B400BB10120D9
:101B400000E00020704741617047016170470AB1B1
:101B5000016100E04161704700BFFEE708B5012167
:101B6000082000F0F3FAC020ADF8000003208DF843
:101B7000020014208DF8030069460248FFF706FFB3
:101B800008BD0000000C014010B50020524908605B
:101B900004215248FFF7CEFF012807D14E480068C4
:101BA00020F00100401C4C49086005E04A480068EC
:101BB00020F001004849086008214848FFF7BAFFB3
:101BC000012807D14448006820F00200801C4249E7
:101BD000086005E04048006820F002003E490860C7
:101BE00010213E48FFF7A6FF012807D13A480068B8
:101BF00020F00400001D3849086005E03648006800
:101C000020F004003449086020213448FFF792FF97
:101C1000012807D13048006820F0080008302E491C
:101C2000086005E02C48006820F008002A49086098
:101C300040212A48FFF77EFF012807D12648006887
:101C400020F0100010302449086005E022480068A8
:101C500020F010002049086001212148FFF76AFFA9
:101C6000012807D11C48006820F0200020301A49C4
:101C7000086005E01848006820F020001649086058
:101C800002211748FFF756FF012807D112480068C4
:101C900020F0400040301049086005E00E48006820
:101CA00020F040000C49086004210D48FFF742FF76
:101CB000012807D10848006820F0800080300649DC
:101CC000086005E00448006820F0800002490860D0
:101CD0000148006810BD00003800002000180140D5
:101CE000001C014000BFFEE710B5044604F00100EF
:101CF00028B14FF480511448FFF727FF04E04FF458
:101D000080511148FFF71FFF04F0020028B14FF483
:101D100000610D48FFF719FF04E04FF400610A4825
:101D2000FFF711FF04F0040028B14FF4806106486A
:101D3000FFF70BFF04E04FF480610348FFF703FF58
:101D4000052002F023F910BD00200140704700007B
:101D500070B5002100230F22C47804B3154C246809
:101D600004F4E064C4F5E064210AC1F10403CA404C
:101D7000447804FA03F184781440214309010E4C9D
:101D80000678A155047804F01F050124AC400578BD
:101D90006D11AD0005F1E025C5F8004109E00478BA
:101DA00004F01F050124AC40044D0678761145F877
:101DB000264070BD0CED00E000E400E080E100E0B2
:101DC00002490143024A1160704700000000FA0511
:101DD0000CED00E0024A0A400243024B1A607047D1
:101DE00080FFFF1F08ED00E010B500214FF00060FC
:101DF000FFF7F0FF4FF48060FFF7E2FF10BD000037
:101E000010B504463F490C800846007800F00100F8
:101E100020B140213C48FFF796FE03E040213A48BC
:101E2000FFF793FE37480078C0F3400020B18021CF
:101E30003548FFF788FE03E080213348FFF785FE31
:101E400030480078C0F3800028B14FF480712E48EC
:101E5000FFF779FE04E04FF480712B48FFF775FE21
:101E600028480078C0F3C00028B14FF4007126481C
:101E7000FFF769FE04E04FF400712348FFF765FEA9
:101E800020480078C0F3001028B14FF480511F485B
:101E9000FFF759FE04E04FF480511C48FFF755FE50
:101EA00018480078C0F3401028B14FF4005117488B
:101EB000FFF749FE04E04FF400511448FFF745FED8
:101EC00010480078C0F3801028B14FF480410F48CB
:101ED000FFF739FE04E04FF480410C48FFF735FE70
:101EE00008480078C0F3C01028B14FF400410748FB
:101EF000FFF729FE04E04FF400410448FFF725FEF8
:101F000010BD00003C000020001001400014014002
:101F100010B540215448FFF70DFE012807D1534862
:101F2000006820F00100401C5049086005E04F485F
:101F3000006820F001004D49086080214A48FFF701
:101F4000F9FD012807D14948006820F00200801CF3
:101F50004649086005E04548006820F00200434912
:101F600008604FF480714048FFF7E4FD012807D175
:101F70003E48006820F00400001D3C49086005E070
:101F80003A48006820F00400384908604FF40071B6
:101F90003548FFF7CFFD012807D13448006820F00D
:101FA000080008303149086005E03048006820F03A
:101FB00008002E4908604FF480512D48FFF7BAFD04
:101FC000012807D12948006820F010001030274967
:101FD000086005E02548006820F0100023490860EB
:101FE0004FF400512248FFF7A5FD012807D11F48F3
:101FF000006820F0200020301C49086005E01B48E4
:10200000006820F02000194908604FF4804118480A
:10201000FFF790FD012807D11448006820F0400028
:1020200040301249086005E01048006820F0400088
:102030000E4908604FF400410D48FFF77BFD012871
:1020400007D10A48006820F0800080300749086006
:1020500005E00648006820F0800004490860034855
:102060000088C04310BD0000001001403C0000206B
:102070000014014010B500F003F801F059F810BD4C
:1020800008B50121412000F061F801210B48FFF75C
:1020900009FD4FF4C040ADF8000003208DF80200A8
:1020A00018208DF8030069460548FFF76FFC4FF4D0
:1020B000C0410348FFF747FD08BD0000C0001600FF
:1020C00000180140014908627047000000000E42FC
:1020D0007047000001460020034A506820F4404049
:1020E00008435060704700000010024029B1064AC2
:1020F00052690243044B5A6104E0034A5269824325
:10210000014B5A61704700000010024029B1064A95
:10211000D2690243044BDA6104E0034AD269824384
:10212000014BDA61704700000010024029B1064AF5
:1021300012690243044B1A6104E0034A12698243A4
:10214000014B1A61704700000010024029B1064A95
:1021500092690243044B9A6104E0034A9269824304
:10216000014B9A61704700000010024029B1064AF5
:10217000D2680243044BDA6004E0034AD268824327
:10218000014BDA60704700000010024010B500F00B
:1021900045F84FF4803000F003F900F065F904468B
:1021A000012C2AD1002000F0EFF8002000F02AF9DD
:1021B000A00200F01BF9E003FFF78CFF002000F005
:1021C0004DF90220FFF72AFB1020FFF719FB4FF40F
:1021D000E011200400F028F9012000F01FF900BFF1
:1021E000392000F0ABF80028FAD0022000F02AF9DC
:1021F00000BF00F0C1F80828FBD1012144F2FD30F6
:10220000FFF7A4FF01210448FFF780FF01210846E2
:10221000FFF76CFF10BD0000010082200F4800682E
:1022200040F001000D490860084640680C4908402C
:102230000A494860084600680A490840074908609A
:102240000846006820F4802008600846406820F4B2
:10225000FE0048604FF41F00886070470010024085
:102260000000FFF8FFFFF6FE30B500210022002439
:1022700000232D4D6D6805F00C0121B1042905D016
:10228000082923D105E0294D056022E0274D05608E
:102290001FE0254D6D6805F47012234D6D6805F43F
:1022A0008034022505EB92421CB9214D554305604F
:1022B0000BE01D4D6D6805F400351DB11C4D5543F7
:1022C000056002E0194D5543056002E0174D0560B9
:1022D00000BF00BF144D6D6805F0F0010909154DF0
:1022E0006B5C0568DD4045600F4D6D6805F4E0618D
:1022F000090A104D6B5C4568DD4085600A4D6D68CC
:1023000005F46051C90A0B4D6B5C4568DD40C56042
:10231000054D6D6805F44041890B074D6B5CC56840
:10232000B5FBF3F5056130BD0010024000127A00E4
:1023300000093D00000000201000002010B50146FB
:102340000022002300204A11012A02D1094C2368EF
:1023500006E0022A02D1074C236A01E0054C636AB9
:1023600001F01F02012494401C400CB1012000E048
:10237000002010BD001002400248406800F00C0030
:10238000704700000010024001460020034A5068D8
:1023900020F0F00008435060704700000010024039
:1023A0001149096821F480310F4A1160114609680A
:1023B00021F480211160B0F5803F03D0B0F5802F6B
:1023C0000ED106E00849096841F48031064A1160DF
:1023D00007E00549096841F4A021034A116000E0C3
:1023E00000BF00BF704700000010024001460020FF
:1023F000034A506820F4E0600843506070470000D2
:102400000010024001460020034A506820F460504A
:1024100040EAC10050607047001002400149086660
:10242000704700000000424202460020044B5868FA
:1024300020F47C1042EA01031843014B58607047B6
:102440000010024001460020034A506820F00300BB
:1024500008435060704700000010024001490860C6
:1024600070470000D800424238B500200090002498
:10247000002500BF3120FFF761FF05460098401C92
:1024800000900098B0F5A06F01D0002DF2D031205F
:10249000FFF754FF08B1012400E00024204638BDB6
:1024A000704710B500F002F810BD00000CB5002018
:1024B000019000903348006840F480303149086052
:1024C00000BF3048006800F4003000900198401CC4
:1024D0000190009818B90198B0F5A06FF1D1294882
:1024E000006800F4003010B10120009001E00020ED
:1024F00000900098012843D12348006840F0100064
:10250000214908600846006820F00300086008467A
:10251000006840F0020008601A48406819494860A5
:102520000846406848600846406840F4806048605B
:102530000846406820F47C1048600846406840F433
:10254000E81048600846006840F08070086000BFEE
:102550000C48006800F000700028F9D00948406875
:1025600020F00300074948600846406840F0020038
:10257000486000BF0348406800F00C000828F9D10B
:102580000CBD00000010024000200240062818D2B6
:10259000DFE800F01703070B0F130D490D4A116018
:1025A00013E00D490B4A11600FE00C49094A116014
:1025B0000BE00B49074A116007E00A49054A116020
:1025C00003E00349034A116000BF00BF70470000E9
:1025D0000038014040000020004400400048004016
:1025E000004C00400050004010B51C480078012805
:1025F00027D120211A48FFF79DFA08BB0020174970
:10260000087018480078401C164908700846007881
:10261000012807D10121144800F096FA0020FFF7A5
:1026200063FB19E00F480078022815D100210E48FD
:1026300000F08AFA0720FFF757FB002009490870CD
:102640000AE00648007838B920210548FFF772FAF9
:1026500010B101200149087010BD00005400002095
:102660000018014055000020002C014070B586B0D4
:10267000002401A8FFF7F8FD64210298B0FBF1F4F3
:10268000042000F029F82146B1F1807F00D31DE03D
:1026900021F07F40401E4FF0E022506150170F2282
:1026A000002807DA13071E0E094B00F00F052D1F37
:1026B0005E5503E013071D0E064B1D5400BF00209E
:1026C0004FF0E02290610720106100BF06B070BD9E
:1026D00018ED00E000E400E0042808D14FF0E0210C
:1026E000096941F004014FF0E022116107E04FF069
:1026F000E021096921F004014FF0E02211617047E7
:102700007047000010B51348006840F001001149FF
:10271000086008464068104908400E49486008466D
:1027200000680E4908400B4908600846006820F41C
:10273000802008600846406820F4FE0048604FF49E
:102740001F008860FFF7ADFE4FF00060044908608D
:1027500010BD0000001002400000FFF8FFFFF6FE71
:1027600008ED00E07047000010B54FF08040008A8F
:1027700000F0010000287DD04FF08040008A20F05A
:1027800001004FF08041088200208884DA480078F8
:10279000002870D1D8480078401CD7490870FFF74E
:1027A000B7FB20F007042046FFF72AFB0120D3499E
:1027B0000870D3480068002838D104F063F9D04984
:1027C00008600846006848B3CE48407803280BD11B
:1027D00008460068806ACC49C861C86905F05AFC9F
:1027E00049F64040C8498861C5480068006B00EB65
:1027F0006000C5490862C248006800694010404254
:102800000860084600684860084600688860BC4860
:1028100000680069C8600020086107E005F0EEFE6E
:10282000B848807840F00400B6498870B448006821
:1028300000287DD0B24800680078B4490870B248DA
:102840000068AF49096849680844AF49086008460C
:10285000006800281FDDAD48007840F00100AB495A
:102860000870A9480068A849C968401AA6490860C4
:10287000A64801E03EE11FE1007800F0100028B119
:10288000A0484068401E9F49486004E09D48406859
:10289000401C9C4948609C4840689949096889687F
:1028A0000844994948600846406800281CDD97485C
:1028B000007840F0020095490870934840689249BA
:1028C000C968401A904948609048007800F020009C
:1028D00028B18C488068401E8A49886004E0894895
:1028E0008068401C874988608748806884490968F7
:1028F000C9680844844988600846806800281DDD4E
:102900008248007840F00400804908707E48806862
:102910007D49C968401A7C4988607C48007800F08D
:10292000400030B17748C068401E7649C86005E075
:1029300027E07448C068401C7249C860724800694A
:10294000401C71490861084600696D4909680969B8
:1029500088427AD26B48407804281FD103F0EEF801
:1029600000280ED06848C06965490968096B88422B
:1029700008D805F043FE6348807840F004006149C0
:1029800088708EE06048C0695D490968096B401A2B
:102990005D49C861C86905F07DFB82E05A4800695D
:1029A00057490968496B88421CD203F0C7F80028D0
:1029B00077D05548C06952490968096B08445249A3
:1029C000C8610846C0694E490968C96B884204D38A
:1029D0004B480068C06B4C49C8614B49C86905F059
:1029E00059FB5EE04848006945490968896B88429F
:1029F00042D34548006942490968896B884212D12F
:102A00004148C0693E490968C96B884204D149F60A
:102A100040403D49886144E03B4880693C49081A90
:102A2000394988613DE003F089F820B33648C06930
:102A30003549096A884209D93348C069304909686B
:102A4000096B401A3049C86105E025E02E48C0698D
:102A500040082D49C8612C48C06929490968C96ADC
:102A6000884204D226480068C06A2749C8612649BE
:102A7000C86905F00FFB14E02348C06920490968C4
:102A8000C96B88420DD01E480068C06B1E49C861E2
:102A9000C86905F0FFFA04E000201949086003F056
:102AA000DFFF1C48007E1949097848401749087023
:102AB0000020124908701DE00F480078D0B1FFF7E0
:102AC00027FA20F070001149097801F0700140EAFE
:102AD00001042046FFF794F9FFF71AFA20F00700E7
:102AE0000A49097840EA01042046FFF789F90020E5
:102AF0000149087010BD000036000020350000209C
:102B000030000020E4240020C41100203400002004
:102B1000803801008411002021B1028842F0800237
:102B2000028004E002884FF67F731A4002807047EB
:102B300021B1028842F00102028004E002884FF6CF
:102B4000FE731A400280704731B1B0F8442042F45D
:102B50000042A0F8442005E0B0F84420C2F30E0281
:102B6000A0F844207047000010B50446684884422D
:102B700008D10121C014FFF7F9FA0021E014FFF792
:102B8000F5FAC4E0B4F1804F08D101210846FFF7FF
:102B9000CDFA00210120FFF7C9FAB8E05D48844270
:102BA00008D101210220FFF7C1FA00210220FFF71E
:102BB000BDFAACE05848844208D101210420FFF757
:102BC000B5FA00210420FFF7B1FAA0E0534884428F
:102BD00008D101210820FFF7A9FA00210820FFF7FA
:102BE000A5FA94E04E48844208D101211020FFF755
:102BF0009DFA00211020FFF799FA88E049488442A5
:102C000008D101212020FFF791FA00212020FFF7B1
:102C10008DFA7CE04448844208D101214014FFF73A
:102C2000A5FA00216014FFF7A1FA70E03F48844242
:102C300009D10121C804FFF799FA00214FF40020BF
:102C4000FFF794FA63E03A48844209D1012108056C
:102C5000FFF78CFA00214FF48010FFF787FA56E057
:102C60003448844209D101214805FFF77FFA002149
:102C70004FF40010FFF77AFA49E02F48844208D158
:102C800001214020FFF752FA00214020FFF74EFAC1
:102C90003DE02A48844208D101218020FFF746FA0E
:102CA00000218020FFF742FA31E02548844208D114
:102CB00001218015FFF73AFA0021A015FFF736FA37
:102CC00025E02048844209D101210804FFF74EFA8B
:102CD00000214FF48030FFF749FA18E01A48844287
:102CE00009D101214804FFF741FA00214FF40030D7
:102CF000FFF73CFA0BE01548844208D10121880413
:102D0000FFF734FA00214FF48020FFF72FFA10BDAF
:102D1000002C01400004004000080040000C00406E
:102D2000001000400014004000340140004C0140FD
:102D3000005001400054014000180040001C0040B9
:102D40000020004000400140004401400048014094
:102D500070B5002400220023058C4FF6FF66354035
:102D60000584028C8388848B4FF68F752C404FF638
:102D7000FC752C400D882C434FF6FF552A400D89D9
:102D80004FF6FF7606EA05252A434D8806EA052513
:102D90002A43154DA84202D0144DA8421DD14FF22E
:102DA000FF752A404D894FF6FF7606EA05252A432E
:102DB0004FF6FF352A408D8806EA05252A434EF650
:102DC000FF752B404DF6FF752B408D8906EA0515E2
:102DD0002B43CD8906EA05152B4383808483CD8858
:102DE0008587028470BD0000002C01400034014042
:102DF0000A460021818B4FF6F773194011438183F6
:102E00007047818770470000002202881D4B98425E
:102E10000ED01D4B98420BD0B0F1804F08D01B4B09
:102E2000984205D01A4B984202D01A4B984204D1CE
:102E30004FF68F731A404B881A43174B984207D0AE
:102E4000164B984204D04FF6FF431A40CB881A43E2
:102E500002808B8883850B8803850A4B98420BD0B0
:102E6000094B984208D00E4B984205D00D4B984222
:102E700002D00D4B984201D10B7A03860123838245
:102E800070470000002C0140003401400004004065
:102E900000080040000C00400010004000140040FA
:102EA00000400140004401400048014000B540207E
:102EB0000A49086000F034F980200849091F0860B9
:102EC00000F02EF940200549091F086000F028F99C
:102ED00040200249086000F023F900BD140C0140B5
:102EE00070B5044600F07CF805460DB1284670BD6B
:102EF000A02000F04BF800F0B7F818B900F09CF8EB
:102F00000020F4E7201200F041F800F0ADF8E0B244
:102F100000F03CF800F0A8F800F062F8A12000F002
:102F200035F800F0A1F800F007F80646FFF7BEFFFD
:102F300000F082F83046DAE710B50824002380203C
:102F40001149086014E05806030E40200E49091D7F
:102F5000086000F0E5F840200B49086000F0E0F858
:102F600009480838006800F0800008B143F0010308
:102F7000201EA4F10101CCB2E5D140200249091D77
:102F80000860184610BD0000100C014010B5034643
:102F9000082419E040201149086000F0C1F803F04E
:102FA000800020B180200D49091F086002E08020C8
:102FB0000A4908605806030E00F0B2F8402007499D
:102FC000091F086000F0ACF8201EA4F10101CCB28A
:102FD000E0D140200149086010BD0000140C014000
:102FE00000B58020134908604020086000F098F880
:102FF00010480838006808B9012000E0002000F0FF
:10300000800008B1012000BD80200A49091D086028
:1030100000F086F807480838006800F0800008B122
:103020000220F0E740200349091D086000F078F80D
:103030000020E8E7100C014000B580200949086035
:103040004020086000F06CF840200649091F086025
:1030500000F066F880200349091F086000F060F85E
:1030600000BD0000140C014000B540200F4908606D
:1030700000F056F880200D49091F086000F050F854
:1030800040200A49091F086000F04AF807480C3838
:10309000006800F0800020B1402004490860002052
:1030A00000BD4020014908600120F9E7140C0140EF
:1030B00070B506460C46002220211848FEF747FD51
:1030C0000120FEF75BFBFFF78BFF05460DB128469D
:1030D00070BDA020FFF75AFFFFF7C6FF18B9FFF732
:1030E000ABFF0020F4E72012FFF750FFFFF7BCFF13
:1030F000E0B2FFF74BFFFFF7B7FF3046FFF746FFA1
:10310000FFF7B2FFFFF798FF0C20FEF737FB012215
:1031100020210248FEF71BFD0320D9E7000C0140E7
:103120000A2000BF011EA0F10102D0B2FAD17047FF
:1031300000B587B00121C802FFF708F81D48FFF766
:1031400013FD6320ADF814004720ADF810000020F7
:10315000ADF816001020ADF8120000208DF8180010
:1031600004A91448FFF750FE6020ADF800000120CC
:10317000ADF802000020ADF80600ADF80800694681
:103180000C48FFF7E5FD08210A48FFF731FE322120
:103190000848FFF736FE01210648FFF7BDFC012174
:1031A0000448FFF7C5FC00210248FFF7CDFC07B03B
:1031B00000BD0000002C014010B50446204606F07A
:1031C000F5FA10BD70B540F22551314800F0D9FA3A
:1031D00001284CD140F225512D4800F0A1FA2C488D
:1031E00000F08AFBC4B2242C0BD1002029490870BE
:1031F00029480978445427480078401C254908701C
:1032000045E00A2C0BD12348007801283FDD01203E
:103210002149891E08701F480078487037E00D2C3E
:103220000BD11C480078012831DD01201A49891E84
:10323000087018480078487029E01748154909783F
:10324000445414480078401C12490870084600781D
:103250003C281CDB002504E000210F484155681C78
:10326000C5B23C2DF8DB00200A4908700FE04FF48E
:103270005871074800F078FA012803D1044800F09B
:103280003BFB04E040F22771014800F07AFA70BD80
:10329000004C00404D000020B323002070B540F2E8
:1032A0002551234800F06DFA012830D140F2255114
:1032B0001F4800F035FA1E4800F01EFBC5B20A2D6B
:1032C00035D00D2D08D100211A484278801C815438
:1032D0000120184908702AE016484178801C45549E
:1032E000801E4078401C1349487008464078642886
:1032F0001DDB002405E000210E48801C0155601CE8
:10330000C4B2642CF7DB00200A4948700FE04FF488
:103310005871074800F028FA012803D1044800F04A
:10332000EBFA04E040F22771014800F02AFA70BD80
:10333000005000401724002010B500F0F1F800F014
:1033400053F800F009F900F013F840F2255107484E
:1033500000F0E6F9012240F22551044800F03BFA62
:103360000121024800F0EBF910BD000000380140D7
:1033700000B58DB001210846FEF7B8FE0E208DF88D
:10338000300000208DF8310002208DF8320001203D
:103390008DF833000CA8FEF7DBFC1048FEF70AF9A5
:1033A0000F4801900F4802901020039000200590D4
:1033B0008020069000200790089009904FF440501C
:1033C0000A9000200B9001A90448FEF7B8F90122E9
:1033D00002210248FEF7AAF90DB000BD44000240E8
:1033E00004380140A812002008B501210420FEF78E
:1033F000ADFE4FF40070ADF8000018208DF803000A
:1034000003208DF8020069460748FEF7BFFA4FF423
:103410008060ADF8000004208DF803006946024882
:10342000FEF7B4FA08BD00000008014070B540F294
:103430002551344800F0A5F9012852D140F2255118
:10344000304800F06DF92F4800F056FAC5B2182D3B
:103450001BD0212D12D03F2D02D07E2D2ED106E083
:103460002948807840F001002749887038E02648D4
:10347000807840F002002449887031E0224880784A
:1034800040F00800204988702AE00020FEF7B8FCD0
:103490006420FEF781F9012080F3138800BF00BF8C
:1034A0001A48006800F4E06019490843001D1749F4
:1034B0000860BFF34F8F00BF00BFFEE715480078DC
:1034C000401CC4B2802C00D10024134800788442F0
:1034D00005D012480F49097845540E48047000BFC2
:1034E0000FE04FF45871074800F03EF9012803D16E
:1034F000044800F001FA04E040F22771014800F0AE
:1035000040F970BD00380140E42400200CED00E0DB
:103510000000FA054800002049000020E8110020C2
:103520001FB501218803FEF711FE4FF4E130009032
:103530000020ADF80400ADF80600ADF80800ADF8C5
:103540000C000C20ADF80A006946024800F068F94A
:103550001FBD00000038014008B525208DF800008F
:1035600000208DF8010002208DF8020001208DF866
:1035700003006846FEF7ECFB08BD000070B540F2A2
:103580002551354800F0FDF8012853D140F225516E
:10359000314800F0C5F8304800F0AEF9C4B2402C14
:1035A0000DD100202D4988700846817800F2034033
:1035B00044542A488078401C284988704AE00A2CE4
:1035C0000DD126488078022844DD01202349087067
:1035D00000212248827800F2034081543AE00D2C09
:1035E0000DD11E488078022834DD00211B488278E6
:1035F00000F2034081540120184908702AE017485E
:10360000817800F20340445414488078401C1349E8
:103610008870084680783C281CDB002504E00021E7
:103620000F484155681CC5B23C2DF8DB00200B4902
:1036300088700FE04FF45871074800F095F80128A2
:1036400003D1054800F058F904E040F22771024820
:1036500000F097F870BD000000440040A81600205C
:10366000AB1A002070B540F225512B4800F089F8C4
:1036700001283FD140F22551274800F051F8264853
:1036800000F03AF9C4B20A2C08D10021234842784C
:10369000801C81540120214908703BE00D2C39D059
:1036A0003A2C0CD100201D49487008464178801CF6
:1036B0004454801E4078401C184948702AE017483E
:1036C0004178801C4454801E4078401C1349487047
:1036D0000846407864281DDB002505E000210F48DE
:1036E000801C4155681CC5B2642DF7DB00200B49D6
:1036F00048700FE04FF45871074800F035F8012882
:1037000003D1054800F0F8F804E040F227710248C0
:1037100000F037F870BD000000480040AB220020E8
:1037200010B50022002340F66A14A14200D100BF68
:103730000A1201249440A3B2DC43048010BD21B1DD
:10374000828942F40052828104E082894DF6FF733F
:103750001A40828170471AB1838A0B43838202E048
:10376000838A8B438382704702460020B1F5007F35
:1037700000D100BF13880B400BB1012000E00020F6
:10378000704770B50246002400230025002040F653
:103790006A16B14200D100BFC1F3421501F01F0308
:1037A000012606FA03F3012D02D19689334006E083
:1037B000022D02D1168A334001E0968A33400C1262
:1037C000012606FA04F41688344013B10CB1012026
:1037D00000E0002070BDF0B503460024002600255F
:1037E000002040F66A17B94200D100BF1846C1F365
:1037F000421401F01F06012707FA06F5012C01D13A
:103800000C3004E0022C01D1103000E014301AB169
:1038100007682F43076002E00768AF430760F0BD09
:103820002DE9F04786B005460E460024A24600BFAB
:10383000A1460027B08900B100BF2F462C8A4CF664
:10384000FF700440F08804432C82AC894EF6F310DC
:103850000440B08831890843718908430443AC812E
:10386000AC8A4FF6FF400440B0890443AC8201A803
:10387000FEF7FAFC1F48874202D1DDF810A001E0F4
:10388000DDF80CA0A88900F4004040B10AEBCA00A2
:1038900000EB0A1031684900B0FBF1F807E00AEBD1
:1038A000CA0000EB0A1031688900B0FBF1F864200F
:1038B000B8FBF0F004012009642101FB1089A889FC
:1038C00000F4004040B1322000EBC900B0FBF1F041
:1038D00000F00700044308E0322000EB09106421E7
:1038E000B0FBF1F000F00F0004432C8106B0BDE8FE
:1038F000F08700000038014001468888C0F30800C6
:10390000704700BFFEE7490050EAC12018BF0420FD
:103910004A0D18BF40F0010040F2FF72B2EB515F58
:1039200008BF40F00200012808BF052070470000D2
:103930002DE9F74F144694B00021C4E902111599FE
:10394000079121F00045C9498D4206DC1599C4E96B
:10395000000117B00020BDE8F08FC549DFF814A3BF
:10396000A9423CDD0799C44E0029C44FC44A1599A9
:10397000534619DD05F0A0FC554506D0C14AC24B9F
:1039800005F09AFCC4E900010AE04FF0D352BE4BA7
:1039900005F092FC32463B4605F08EFCC4E900017E
:1039A00017B00120BDE8F08F04F04CFF554506D05C
:1039B000B44AB54B04F046FFC4E900010AE04FF0F9
:1039C000D352B14B04F03EFF32463B4604F03AFF7F
:1039D000C4E9000117B04FF0FF30BDE8F08FAB49EC
:1039E000A942159978DB21F0004183468846A84A10
:1039F000A84B05F03BFA0022A74B04F023FF05F08B
:103A000071F9099005F0CBF906460F469C4A5346DA
:103A100005F02CFA43465A4605F05CFB80468A4680
:103A2000984A994B3046394605F020FA2A0D01256F
:103A30000B924246534605F04DFB032DC4E90001AD
:103A400039D00B98C1F30A51401A05EB45111139D1
:103A5000814230DA9148C346784400EB0510CDF836
:103A60000CA00C90D0E900233046394605F0FEF951
:103A700002460B46049106905846039905F01CFC3B
:103A800080468A4602460B465846039905F014FCC8
:103A9000049B069A05F010FC83460C980391394666
:103AA000D0E90223304605F0E1F95A46039B05F0C0
:103AB00003FC6D1CBDE707980028A2BF099817B04A
:103AC000BDE8F08F616881F000416160099817B02E
:103AD0004042BDE8F08FFFE784461598C1F313011B
:103AE000C0F30A50A0F2F5304FEA601800F01F064C
:103AF000C6F12000139000200690079041F4801E2C
:103B000005206D4676B1664A08EB00017A4452F80A
:103B1000213002EB8101B3404A68139922FA01F186
:103B2000194305E05F4908EB0002794451F822107F
:103B3000A1FB0E27A1FB0C131A449A4234BF0123A8
:103B4000002303EB070A05EB8003D3E901B70F4419
:103B50008F4234BF0121002193448B4411B193451E
:103B600002D903E0934501D2012100E00021C3E91D
:103B700001B7514445F82010011EA0F10100C1DC3D
:103B80000298059F00F10050800F12900298DDE925
:103B90000356800005F003F9834628460D9105F091
:103BA00015F96FF01D0206F04EF8CDE90E01304612
:103BB00005F00CF96FF03D0206F045F880468A46A4
:103BC000384605F003F96FF05D0206F03CF8074651
:103BD00042465346119104F035FEDDE90E2304F010
:103BE00031FE5A460D9B04F02DFE00250E465A4626
:103BF00028460D9B05F060FBDDE90E2305F05CFB1C
:103C00004246534605F058FB3A46119B05F062FACE
:103C1000DFF898A0244A534605F028F9074688465D
:103C2000234A244B3146284605F020F93A464346BC
:103C300004F008FE074688464FF0A8425346314636
:103C4000284605F013F93A46434604F0FBFD159A61
:103C500012F0004F04D0129A81F0004152421292A9
:103C6000C4E90001129817B0BDE8F08FFB21E93FCD
:103C70007CD90240FB21F93F7370032E8A19A33BC4
:103C8000000040543163621A61B4D03DFB213941D8
:103C900083C8C96D305FE43F0000E03F4C63000023
:103CA000C8620000AA620000182D4454FB21F93DAF
:103CB0003326A611460B113C2DE9FF4D21F000489B
:103CC00007460C46B8F1795F08DA05F00BF80028D2
:103CD00001BF0020324904B0BDE8F08D3A462346CA
:103CE0001046194605F0C2F8054602462D480E4614
:103CF0000B460621784400F05DF82A46334605F06D
:103D0000B5F8DDE9022382468B463846214605F0A8
:103D1000ADF804460F4652465B462846314605F04C
:103D2000A5F822463B4605F0C7FA07468A464FF0FB
:103D3000FF322846314605F086FF1B4A90450ADAD5
:103D40003A46534605F0B8FA04B00022BDE8F04DFB
:103D5000134B05F0BFB9154A4245A8BFA8F5001599
:103D60004FF00004B8BF124D22462B4605F0A4FACE
:103D70000646884622462B460020094905F09CFA53
:103D800004460D463A4653463046414605F094FAFD
:103D900004B022462B46BDE8F04D05F09BB900006B
:103DA0000000F03F786000003333D33F0000E93F6C
:103DB0000000D23F2DE9F0414F1E00EBC701044641
:103DC000D1E9000115461E4637F006020DD02A46FD
:103DD000334605F04BF87F1E04EBC703D3E90023FD
:103DE00004F030FD37F00602F1D1022F25D0042F68
:103DF00013D0062F18BFBDE8F0812A46334605F0E0
:103E000035F8D4E90A2304F01DFD2A46334605F0AF
:103E10002DF8D4E9082304F015FD2A46334605F0B1
:103E200025F8D4E9062304F00DFD2A46334605F0B3
:103E30001DF8D4E9042304F005FD2A46334605F0B5
:103E400015F8D4E9022304F0FDFC2A46334605F0B8
:103E50000DF8D4E90023BDE8F04104F0F3BC000004
:103E60002DE9FF4D054621F0004084B00C46B0F12D
:103E7000795F0BDA2846FFF746FD042808BF00F0FB
:103E800077F8284608B02146BDE8F08D2A460B4653
:103E9000104604F0EBFF06460F462A46234604F080
:103EA000E5FF804626488A4632463B46052178444F
:103EB000FFF780FF83461098029160B3214A224B9E
:103EC0004046514604F0D2FFCDE900015A46404633
:103ED0005146029B04F0CAFF82468846DDE906018E
:103EE0004FF0FF3205F0AFFE5246434605F0E4F9CD
:103EF00032463B4604F0BAFFDDE9062305F0DCF963
:103F0000DDE9002305F0D8F908B02A462346BDE8CC
:103F1000F04D05F0DFB80B465A463046394604F0FE
:103F2000A5FF084A084B04F08DFC4246534604F0B6
:103F30009DFF08B02A462346BDE8F04D04F082BC40
:103F4000BE5F0000495555555555C5BF012205F0C6
:103F50007ABE04F077BC002213461046114604F0E6
:103F60002DBD40F2013200204FF0E04105F06BBE64
:103F7000024A0020110705F066BE000001FDFFFFA8
:103F800010B504462046FDF707FC10BD10B50446E9
:103F90002046FDF70BFC10BD30380A2801D2012065
:103FA000704700207047014600BF70472DE9F84F69
:103FB00004460D4621F0004000917349814211DC16
:103FC0007249884201DC06D12CB120462946BDE861
:103FD000F84FFFF7BBBF6E48002DCCBF6D496E494F
:103FE000BDE8F88F6D49814211DD6D498142D8BF2E
:103FF0004FF0FF366DDD20462946FFF784FC04288C
:1040000008BFFFF7B5FF20462946BDE8F88F654990
:10401000654F25F00045814233DD6449814219DD59
:10402000002632464FF080432046294604F00AFC21
:1040300080468A4601222046294605F004FE0022D9
:104040003B4605F039F94246534604F0B7FC0446B6
:104050000D463EE001260022BA463B462046294650
:1040600004F0F0FB80460F460022534620462946C6
:1040700005F022F942463B4604F0A0FC04460D46FA
:1040800027E04B4981421BDDDFF828A102260022F0
:1040900053462046294604F0E9FE00223B4604F040
:1040A000D1FB80460F46002253462046294605F0A4
:1040B00003F942463B4604F081FC04460D4608E005
:1040C000032622462B4600203B4904F077FC044699
:1040D0000D4622462B461046194604F0C7FE8B4675
:1040E000824602460B4604F0C1FE074602463348AC
:1040F00088460B4606217844FFF75CFE52465B4635
:1041000004F0B4FE82462E488B463A4643460521CB
:104110007844FFF74FFE3A46434604F0A7FE0246B6
:104120000B46002E504659460CDA04F08BFB224613
:104130002B4604F09BFE01B022462B46BDE8F04F13
:1041400004F0C8BF04F07EFB22462B4604F08EFE2E
:104150001C4A7A4402EBC603D3E9002305F0ACF80D
:1041600022462B4605F0A8F8174A7A4402EBC6030C
:10417000D3E9002304F0AEFF009A002AB8BF81F013
:104180000041BDE8F88F0000000010440000F07FFF
:10419000182D4454FB21F93FFB21F9BF0000DC3FFF
:1041A0000000203E0000F33F0000F03F0000E63F2B
:1041B000008003400000F83F0000F0BF465C0000B4
:1041C000045C0000A25B00006A5B00002DE9F04D7A
:1041D0009446CCF1000423F000464CEA0404524F0C
:1041E00046EAD4749A46884621F00042BC4206D87A
:1041F000454240EA050442EAD474BC4204D9BDE811
:10420000F04D6246FFF7A5BEAAF14055A5F17F65C6
:1042100055EA0C040BD0022404EAAA74434DDFF8DB
:1042200010E144EAD87452EA000B04D00CE0BDE877
:10423000F04DFFF7BBBE002C14BF012CBDE8F08D84
:10424000022C30D0032C32D056EA0C0B0AD0BE42DE
:1042500020D1BA4209D126F0804622F0804233466E
:10426000114617E000291ADB25E0DFF8C8B0FB444F
:10427000002C04BFDBE90001BDE8F08D012C02BF7A
:10428000DBE9000181F00041BDE8F08D022C0AD08D
:10429000032C0CD0BA4212D1B8F1000F0BDA23482C
:1042A0002549BDE8F08D28462449BDE8F08D284613
:1042B0007146BDE8F08D1D482149BDE8F08D921B87
:1042C00012153C2AC4BF19481D490EDCBAF1000F73
:1042D000BEBF12F13C0F0020014606DB624604F02F
:1042E0006DFB21F00041FFF761FE002C08BFBDE827
:1042F000F08D012C04BF81F00041BDE8F08D114A22
:10430000114B022C07D004F0D7FF2A46BDE8F04D30
:104310000A4B04F0D1BF04F0CFFF2A46BDE8F04DB0
:10432000064B04F0D7BE00000000F07F182D445467
:10433000FB2109C02E5B0000FB21F9BFFB210940D6
:10434000FB21F93F075C143326A6A13C2DE9F74F6A
:1043500088B004461646E06B05F07CFA0390099994
:1043600005F0C0FA834605F091F8CDE9040100F0AC
:104370009DF8074604F0E6FCA062E06B05F06AFADF
:104380003146039005F0AEFA834605F07FF8074604
:1043900000F08CF8CDE9040104F0D4FCE062322294
:1043A000216B01FB02F004F0FAFC074600223E4BB1
:1043B00004F05CFDCDE9040104F094FC814648461C
:1043C00005F030FA0390E06B05F044FA0290A06A21
:1043D00005F040FA0190DDE9021200F091F9834600
:1043E00005F054F8CDE9040100F060F8074604F048
:1043F00079FC0546C9F1000005F014FA0390E06A63
:1044000005F028FA0290E06B05F024FA0190DDE94E
:10441000021200F075F9834605F038F8CDE9040181
:1044200000F08CF9074604F05DFC06902069411B02
:104430000698A1EB000ABAF1000F2DDA206905F009
:10444000F1F90390484605F0EDF90290E06A05F0B5
:1044500001FA0190A06A05F0FDF9009001A90EC9CA
:1044600001F03EFB834605F011F8CDE9040100F0B0
:104470001DF8074604F036FC0546002D01DD2846F0
:1044800000E0002005462069A84201DD284600E042
:10449000206905464FF0000A656305EB0A00A0633A
:1044A0000BB0BDE8F08F000000004E402DE9F04158
:1044B000C1F30A52A2F2FF362F4A304B0D46044692
:1044C000142E2FDA002E12DA04F0BCF90022134663
:1044D00004F0CAFD4CD2002DBCBF4FF000450024B3
:1044E00046DB55EA040018BF254D19D140E0DFF83E
:1044F00094C02CFA06F705EA070C5CEA040C08BF26
:10450000BDE8F08104F09EF90022134604F0ACFDF2
:104510002ED2002D03DD4FF48010F0400544BD4342
:10452000002425E0332EC8BFBDE8F081A6F1140CAD
:104530004FF0FF3727FA0CF73C4208BFBDE8F08187
:1045400004F0C8FD0022134604F08EFD10D2002DA9
:104550000DDD142E08BF6D1C09D0C6F134000121F9
:1045600001FA00F02044A04238BF6D1C0446BC4351
:1045700029462046BDE8F0819C7500883CE4377EE2
:104580000000F03FFFFF0F0010B50246B2F5803F7C
:1045900003D291B20423084626E0B2F5002F04D2DC
:1045A000C2F3CF010823C8001EE0B2F5800F04D289
:1045B000C2F38F114023880116E0B2F1807F05D24B
:1045C000C2F30F214FF4807308020DE0B2F1806F47
:1045D00005D2C2F38F214FF48063880204E04FF6C6
:1045E000FF714FF4806388024FF080442385A185DA
:1045F00010BD000010B500200249087000F01CF842
:1046000010BD00001400002010B5044608480078D2
:1046100084420CD002F06EFA012C04D180210548AE
:10462000FDF791FA01E000F007F80148047010BDB1
:10463000140000200020014010B580210148FDF742
:1046400084FA10BD0020014000B5244B21F0004247
:1046500087B09A42DCBF0022134629DD204B9A42E4
:1046600008D140B94FF00100FBF70AFFFFF773FCD8
:1046700007B000BD03DBFFF769FC07B000BD02AA6D
:10468000FFF756F910F0030104BF0DF1080C9CE888
:104690000F000DD0012001290ED0022914D00DF1F8
:1046A000080C00909CE80F00FFF7DAFB07B000BD94
:1046B000FFF702FB07B000BD0DF1080C00909CE86D
:1046C0000F00FFF7CDFB05E00DF1080C9CE80F0093
:1046D000FFF7F2FA07B081F0004100BDFB21E93F8E
:1046E0000000F07F10B50446A0B2FEF7F9FB10BD44
:1046F00070B504460D46A1B22846FEF7D9FC70BD40
:104700002DE9F04704460D46164631464FF08040ED
:1047100005F0E8F880462146204605F0E3F881469A
:104720002946284605F0DEF88246494605F0E2F9BA
:104730000746414604F044FFBDE8F0872DE9F0410B
:10474000C1F30A52A2F2FF362F4A304B0D460446FF
:10475000142E2FDA002E12DA04F074F80022134619
:1047600004F082FC4CD2002DA4BF0024254647DA79
:1047700025F00040204318BF254D41D018E0DFF858
:1047800094C02CFA06F705EA070C5CEA040C08BF93
:10479000BDE8F08104F056F80022134604F064FCF2
:1047A0002ED2002D03DA4FF48010F0400544BD43B3
:1047B000002425E0332EC8BFBDE8F081A6F1140C1B
:1047C0004FF0FF3727FA0CF73C4208BFBDE8F081F5
:1047D00004F080FC0022134604F046FC10D2002DA9
:1047E0000DDA142E08BF6D1C09D0C6F1340001216A
:1047F00001FA00F02044A04238BF6D1C0446BC43BF
:1048000029462046BDE8F0819C7500883CE4377E4F
:104810000000F0BFFFFF0F0070B504460D4600BF5B
:1048200080210A480068FEF79FFF0028F8D0E0B218
:1048300006490968888000BF04480068008800F0C5
:1048400040000028F8D0204670BD00004000002045
:1048500001B5A6B0F7482190002020901F90189035
:10486000179016901590149013901290F24840787B
:10487000062802D10C2027B000BD00201C901D90FE
:104880001E9019901A901B90EC490870AAE1239889
:10489000FEF792FC22909DF89000472802D04D2808
:1048A00078D12EE12298352834D01BDC11283CD059
:1048B00009DC0B2852D2DFE800F0313233342951C1
:1048C000515151512A0015283DD006DC12282DD017
:1048D00013282CD0142841D134E01C2818D01E28CD
:1048E0003CD116E050281DD008DCA0F13600062887
:1048F00034D2DFE800F02B2C2D2E2F305A3805282B
:104900002CD2DFE800F01718081B1C0000BF00BF06
:1049100000BF00BF00BF012015901FE000BF00BF17
:1049200000BF00BF0220159018E000BF00BF0320A9
:10493000159013E000BF042015900FE000BF062083
:1049400015900BE000BF0720159007E000BF00BFE7
:1049500000BF00BF00BF0920159000BF00BF229814
:10496000352876D01CDC112844D009DC0B2871D204
:10497000DFE800F02A2E32363AC1C1C1C1C13D0084
:1049800015284DD007DC12283AD013283ED0142821
:1049900060D141E00EE11C2846D01E28F8D144E049
:1049A000502878D008DCA0F136000628DFD2DFE8F6
:1049B00000F06768696A6B6C5A380528D7D2DFE85F
:1049C00000F06E727692960000209C49487096E046
:1049D00001209A49487092E00220984948708EE080
:1049E0000320964948708AE001201F9087E002204A
:1049F0001F9084E002220121002003F01FFB7EE0D3
:104A000001220021022003F019FB78E0002202219C
:104A1000012003F013FB72E001208849C8706EE0AA
:104A200000208649C8706AE000BF8548239904F0D9
:104A300059FF0D90FEF7C0FB22902298B0F58C7FB5
:104A400009D0A0F2191048B113280AD014280ED1A9
:104A50000AE012E04FE003201F900CE004201F90BA
:104A600009E005201F9006E006201F9003E00320C8
:104A70007249087000BF00BF41E0012020903EE075
:104A800000BF00BF00BF00BF00BF229836386B498F
:104A9000087734E0FFE70420684948702FE00120E0
:104AA000664908712BE000206449087127E06448DA
:104AB000239904F017FF0D90FEF77EFB22902298B9
:104AC000B0F5667F03D0A0F2993030B902E007203C
:104AD0001F9006E008201F9003E00320574908704C
:104AE00000BF00BF0BE001205449887007E00020A0
:104AF0005249887003E003205049087000BF00BF8E
:104B000058E02298032813D005DC58B101280AD0B8
:104B1000022812D108E004280BD005280AD01E284C
:104B20000BD102E000BF00BF00BF0520159004E0DC
:104B300000BF00BF0820159000BF00BF22980428C6
:104B400022D007DC78B1012811D0022810D0032828
:104B50002AD115E005281BD008281DD009281FD010
:104B60001E2821D108E001203449487120E01FE0CF
:104B70000420324948711BE002203049487117E097
:104B800001202E49887113E0FF202C4988710FE025
:104B900000202A4988710BE001202849C87107E0EC
:104BA00000202649C87103E003202449087000BF93
:104BB00000BF00BF00BF1598A0B10121159801FAF0
:104BC00000F01799084018B105201C49087007E04B
:104BD0000121159801FA00F01799084380B2179047
:104BE0000020159018AB23A924A8269A01F016FCE2
:104BF00000287FF44CAE1148007810B10F480078BF
:104C000039E600201890A4E09DF890004638152859
:104C100070D2DFE800F0170B99474849530C0D9903
:104C200059995C61709999997E87900000BF00BF87
:104C30008EE00000000080BFE4240020E40000209B
:104C4000000020410021239804F018FE02D806201D
:104C5000FB490870FA48807888B1239803F080FDFA
:104C6000099004F013FC0022F64BCDE90A0104F090
:104C7000FDF8CDE90C0103F0B3FD219011E023987C
:104C800003F06EFD099004F001FC0022ED4BCDE92C
:104C90000A0103F093FECDE90C0103F0A1FDE84900
:104CA000886055E000BF00BF239803F059FD9DF8D0
:104CB0009010493919AA42F8210049E02398FEF7DB
:104CC0007BFAC0B2129043E02398149040E02398FE
:104CD00003F046FD13903BE00021239804F0CEFD45
:104CE00002D20620D6490870239804F07BFDD449EF
:104CF00008872DE028E00021239804F0BFFD02D2B0
:104D00000620CF4908702398FEF756FACC4908765A
:104D10001EE0239803F024FD1C90169840F001003B
:104D2000169015E0239803F01BFD1D90169840F097
:104D3000020016900CE0239803F012FD1E901698C6
:104D400040F00400169003E00320BD49087000BF46
:104D500000BF18AB23A924A8269A01F05FFB002806
:104D60007FF452AFB648007810B1B548007882E5BC
:104D7000B548407807282BD0B14890F906000D902F
:104D800003F0B6FBAE48008FE8B1AD48008FAF49E5
:104D90000968884217D0AA48008FAC4908600846C5
:104DA000006841F28831884202D90846A749086064
:104DB000A64800683221B0FBF1F080B201460D90A8
:104DC000A348FEF71EF89E48C0790D90FFF71CFC23
:104DD000179800F4007070B19948007F0BA90A90F1
:104DE00003F087F908B90A2045E595480BA90EC9D3
:104DF00020300EC000BF1F98092816D2DFE800F04F
:104E000015051687F688F5F4F3000021149804F0D0
:104E100035FD03D206208A49087006E08A484078AA
:104E2000072802D0149801F023F958E11498FEF7EE
:104E3000C3F922901298022802D01298142805D1A2
:104E40002298002802DB2298062803DD03207C49F3
:104E5000087059E0169830B91298022803D106203C
:104E60007749087050E02298002803DD2298401E00
:104E7000229002E07248007F22902298C0B20FA9CF
:104E80000D9003F036F908B90A20F4E400200E90E2
:104E900027E001210E9801FA00F016990840E0B1D0
:104EA0001298142812D11CA90E9851F820000D90C8
:104EB00063480C300E9950F821000C900D9904F0C5
:104EC00019FE0FAA0E9942F8210006E01CA90E98BF
:104ED00051F820100FAA42F820100E98401CC0B2C2
:104EE0000E900E980328D4DB2298C0B20FA90D9023
:104EF00003F095FA5248017F2298814204D150482C
:104F00000FA90EC920300EC000201690E7E000BFA8
:104F10001698E0B300200D9048E001210D9801FAA9
:104F200000F01699084098B345480079E0B144482C
:104F30002C300D9950F821000B904148203050F84A
:104F400021000A900B9904F0CDFA1CA90C900D9841
:104F500051F8200001460B900C9804F0C3FA1CAAEB
:104F60000D9942F821001DE035480C300D9950F89C
:104F700021001CA90C900D9851F820000B900C9961
:104F800004F0B0FA1CAA0D9942F821000AE020E0D2
:104F9000FFE72B480C300D9950F821101CAA0D98F2
:104FA00042F820100D98401CC0B20D900D980328B7
:104FB000B3DB00200090274840690C901E980B90AE
:104FC0001D980A901C9809900AA90EC901F00CF9C5
:104FD00000BF1F9805280AD10FA9072003F089F800
:104FE00060B90A2047E473E03BE01FE01DE00FA931
:104FF000062003F07EF808B90A203CE40020009067
:10500000144840690D9011980C9010980B900F98CF
:105010000A900BA90EC901F0E7F809480FA90EC9BB
:105020000C300EC00020169059E000BF1F980628D3
:1050300012D103490C31072003F0F1F910E0000010
:10504000E400002000000440E4240020640000206C
:10505000002C014084110020FE49062003F0DFF9F6
:105060003DE0169820B90620FA490C3908702CE06A
:1050700000200E9026E001210E9801FA00F016990A
:105080000840D8B1F34814300E9950F821000C9024
:10509000F04850F821000B900C9904F02BFD1CA94E
:1050A0000D900E9851F8200001460C900D9804F0D8
:1050B00021FDE84920310E9A41F822000E98401C4B
:1050C000C0B20E900E980228D5DD0020169006E0A2
:1050D000E0480C380021C1620163416300BF00BF9A
:1050E000179800F0040010B91698002868D0D94825
:1050F0000C38807868B10021219804F0BFFB08D2F9
:10510000D4480C384078042803D00620D1490C3903
:105110000870209860B1CF480C38407840B1CD4835
:105120000C384078012803D00620CA490C39087091
:10513000C8480C38007818B1C6480C3800785FE5CC
:1051400000200E9049E001210E9801FA00F0169916
:105150000840A0B32098F8B9BE480C380079E0B1F7
:10516000BC4820300E9950F821000C90B9481430FA
:1051700050F821000B900C9904F0B4F91CA90D9083
:105180000E9851F8200001460C900D9804F0AAF9F1
:105190001CAA0E9942F821001BE0AE480E9950F867
:1051A00021001CA90D900E9851F820000C900D992B
:1051B00004F098F91CAA0E9942F8210009E000E0D9
:1051C000A0E1A4480E9950F821101CAA0E9842F8AC
:1051D00020100E98401CC0B20E900E980228B2DD2E
:1051E0009C480C38407805280AD2DFE800F00A21F4
:1051F00041420300169818B1062096490C390870F0
:1052000074E1169820B9062092490C3908700EE016
:1052100000200090904840690D901E980C901D98B9
:105220000B901C980A900BA90EC900F0DDFF5DE100
:10523000169820B9062087490C39087017E0854870
:105240000C388078009083480C38807808B1219819
:1052500002E080480C3880680D901E980C901D98D4
:105260000B901C980A900BA90EC900F0BDFF3DE100
:1052700000BF78480C38C07E0121814016988843D1
:105280001690D0B10021139804F05CFA1AD171483D
:105290000C38407E19A951F8200000210D9004F02F
:1052A00051FA0FD16B480C38807E19A951F82000B3
:1052B00000210D9004F046FA04D1062065490C390E
:1052C000087012E10021139804F03CFA7ED0614886
:1052D0000C38417E0C3050F8210009905D480C38A4
:1052E000407E1CA951F820000890099904F002FCA6
:1052F0000B9058480C38817E0C3050F821000990F2
:1053000054480C38807E1CA951F820000890099957
:1053100004F0F0FB0A90002019901A901B900A9953
:10532000084604F0DFFA09900B99084604F0DAFA0F
:1053300007904FF08140139904F0D4FA0590139927
:1053400004F0D0FA0690079904F0D4FB089009996C
:1053500004F0D0FB0C9000210C9804F08FFA06D2D8
:1053600004203C490C3908700846007848E40A9843
:1053700004F08CF8CDE902010B9804F087F8CDE930
:105380000001DDE9022300F025FACDE906010C98C1
:1053900004F07CF8CDE9020103F0CAF881F0004185
:1053A000CDE90401DDE9062303F008FBCDE908019E
:1053B00003F016FA0C9027480C384078032803D1E4
:1053C0000C9880F000400C90002100E048E0139819
:1053D00004F054FA07D20C9880F000400C90139817
:1053E00080F0004013900C990A9804F07BFA049026
:1053F0000B9904F074FB059004F048F80022174B59
:10540000CDE9060103F032FDCDE9080103F0E8F92A
:1054100010490C39497E19AA42F82100DDE90B0137
:1054200004F060FA04900A9904F05CF8059004F026
:105430002DF80022094BCDE9060103F017FDCDE957
:10544000080103F0CDF903490C39897E19AA42F805
:10545000210022E0F0000020841100200000E03F45
:105460003748807E19A951F82000059004F00EF805
:10547000CDE908013248407E19A951F82000059075
:1054800004F004F8CDE90601DDE9082300F0A2F9F3
:10549000CDE90A0103F0A4F9139000200D902848EB
:1054A0004078022801D101200D90254A9278244BA2
:1054B0009B7813990D980BB1219B01E0204B9B68C1
:1054C000CDE90232CDE904101D48C07E1C49897E19
:1054D000CDE900101A48407E034619AA1CA90C9079
:1054E00017480C3000F006FC00BF00BF00BF144896
:1054F000007810B11248007839E411481CA90EC98F
:105500000C300EC00E484079B8B101F0F3FA00201B
:105510000C4908740A484079022801D100F094FE31
:1055200007484079042805D100F08EFE0020FCF7E2
:10553000DBFB02E00020024948710148007816E4D4
:10554000E4000020E424002010B53C210B48FAF7C9
:1055500067FF0B4800690949886002220121002089
:1055600002F06CFD012005490871087F203102F02E
:10557000C0FD10B90A2002F089FC10BDE400002033
:10558000841100202DE9F04106460C4615463046B0
:1055900004F048F907460F480168384604F010F84F
:1055A0000D49C860204604F03DF9074609484168A6
:1055B000384604F005F808490861284604F032F935
:1055C000074604488168384603F0FAFF02494861FB
:1055D000BDE8F08184110020E40000202DE9FF4F98
:1055E0008FB004468B4699460025DDE90D018842BF
:1055F00001D90D9800E00E980C99884201D20C98C0
:1056000006E0DDE90D01884201D90D9800E00E9811
:105610000B9000200C900D900E9004F0010030B122
:10562000681CC5B26649086800F07EFE0C9004F064
:10563000020030B1681CC5B26149486800F074FED0
:105640000D9004F0040030B1681CC5B25C49886854
:1056500000F06AFE0E90284603F0B8FBCDE9000189
:1056600002F066FFCDE904010B9803F0AFFBCDE932
:105670000201DDE9042303F0A1F9CDE9060103F0FD
:10568000AFF80A904E48016A0A9804F02BF94D4988
:10569000029003F095FF039003F0F8FECDE90401BA
:1056A000FEF704FFCDE9060103F04CFB0990284604
:1056B00003F08CFBCDE9000102F03AFFCDE90401D3
:1056C000484603F0E3FECDE90201DDE9042303F0DF
:1056D000CDFBCDE9060103F083F8814649460A98DF
:1056E00004F000F901460690374803F069FF07907F
:1056F00000F01AFE0646354808900898B04200D9D6
:1057000008962F4890F818A090F8290000F0700033
:1057100080EA0A0ABBF1000F01D18AF0700A284919
:10572000487BFEF733FC00BF5746FCF72DFA00F02C
:10573000FF08119808B188F0070804F0010038B19B
:1057400008F0010010B187F0010701E024F0010426
:1057500004F0020038B108F0020010B187F002072F
:1057600001E024F0020404F0040038B108F0040061
:1057700010B187F0040701E024F0040424B11448B8
:10578000807800F0100010B113B0BDE8F08FFCF786
:10579000BFFB20F0770038430790FCF731FB084946
:1057A000487BFEF7F3FBFCF7B3FB20F07700079094
:1057B000FCF726FB4FF4FA70FEF7E8FBB4E70000B5
:1057C0008411002000803B45C0E1644CF8240100B6
:1057D000E42400202DE9F04D21F0004423F000479F
:1057E00086B082461546A74204DDAA4605462046F5
:1057F0003C460746E01BA3463E46B0F1707F08DDFD
:1058000006B02A463B4650462146BDE8F04D03F01F
:1058100019B88F484FF00008844240DD8D48A042FF
:1058200035DC2A463B4650462146FEF792FBBAF14C
:10583000000F14BF0122002202EB4403864A13F535
:10584000001F04D99442BCBF06B0BDE8F08D002D06
:1058500014BF0123002303EB470313F5001F04D9F2
:105860009742BCBF06B0BDE8F08DC4F3130252EA04
:105870000A0204BF5046594687F07F6282F0E04238
:105880002A4304BF2846314606B0BDE8F08DABF18F
:105890001654A6F116574FF41678A3463E46B7F1B4
:1058A0000C5F29DAB7F5801F1EDA55EA060001BF42
:1058B0005046214606B0BDE8F08D0022674B1746E2
:1058C0001C462846314603F0D1FA05460E463A46B4
:1058D00023465046594603F0C9FA82468B460C4689
:1058E0003746A8F2FE3807E00BF1165406F11657BA
:1058F000A3463E46A8F516782A463B4650465946EA
:1059000003F0DAFC2A463346CDE9000103F0ACFB94
:105910002ED200273A4623465046594603F0CCFC87
:10592000CDE900013A4623465046594602F08AFF27
:10593000DDE9002303F09AFA82468B46284686F07A
:1059400000410246334603F091FA52465B4603F0AB
:10595000B3FC05460E463A4623461046194603F068
:1059600085FA2A46334603F0A7FC02F0E1FD45E044
:1059700001225046594604F066F9CDE9040100229F
:1059800092463B46BB462846314603F095FCCDE99E
:105990000201DDE90401002704F580143A4623469C
:1059A00003F08AFC2A46334603F060FADDE902235D
:1059B00005460E463846214603F058FA2A46334635
:1059C00002F040FF05460E46DDE9000181F000418E
:1059D0000246019B03F04AFA33462A4603F06CFC68
:1059E00005460E4652465B463846214603F03EFACF
:1059F0002A46334603F060FC02F09AFDB8F1000F2E
:105A000004BF06B0BDE8F08D4FF0000C144A08EB5F
:105A1000115340F2FF74A34207DB0220FAF730FD76
:105A200006B0BDE8F04DFEF79CBA02EB08536246A3
:105A300003F01CFA04460D46FDF765FF042808BF75
:105A4000FEF796FA204606B02946BDE8F08D000024
:105A50000000305F0000F07F0000F87F0000D07F82
:105A60000000F03F10B502F00BFB01F01FF8FFF74C
:105A70006BFD01F023FB02F031FDFEF7BBFD00F0F2
:105A8000A7F802F011FE02F05BFE00201249087038
:105A90008870124890F8280000F0020008B1012038
:105AA00008740D484078012808D10C4890F8280067
:105AB00000F0100010B106200749487006484078F1
:105AC000062803D1022001F06FFC04E00020024907
:105AD000487001F0D7FA10BDE424002084110020A2
